:03000000020100FA
:100100001202151202031201F31201FC1201500235
:0601100001120F020112B2
:1001500074201202277420120227742012022774BE
:1001600054120227744D120227742012022774328F
:1001700012022774301202277431120227743712C8
:100180000227742F120227743112022774381202C8
:1001900027744012021E744C120227744112022767
:1001A0007442120227744F120227745212022774EB
:1001B000411202277454120227744F1202277452FC
:1001C00012022774491202277455120227744D1225
:1001D000022774201202277420120227743112029F
:1001E00027743112022722D2B4C2B5F590C2B412DC
:1001F0000237227401780379E631E7227406780029
:10020000791822740F7800791831E7227400780089
:10021000791831E72274387800791831E722448060
:100220007800791831E722D2B4D2B5F590C2B4780B
:1002300000791812023722D9FEB80001221875E0A1
:03024000FF80F448
:00000001FF
