:0700000079197A7D0201006D
:10010000120119120128120137120146120155126B
:10011000018F0201150F020115D2B4C2B5759038D6
:10012000C2B4793212018122D2B4C2B5759000C234
:10013000B4793212018122D2B4C2B5759001C2B431
:100140007AFA12018422D2B4C2B5759006C2B4798B
:100150003212018122D2B4C2B575900FC2B4793285
:1001600012018122D2B4C2B57590C0C2B4793212E4
:10017000018122D2B4D2B5F590C2B4793212018194
:1001800022D9FE220000000000000000DAF62274EE
:10019000203173742031737420317374543173744B
:1001A0004D31737420317374323173743031737420
:1001B00031317374373173742F3173743131737417
:1001C000383173742031737420317374203173317A
:1001D00064744C31737441317374423173744F31B0
:1001E00073745231737441317374543173744F3179
:1001F00073745231737449317374553173744D3162
:1002000073742031737420317374313173743131EC
:02021000732257
:00000001FF
