:0800000079327AFA1D020100B9
:030023000201B91E
:1001000075980A758920758DFD758844D2AFD2AC7B
:10011000120126120135120144120153120162022A
:1001200001220F020122D2B4C2B5759038C2B4794F
:10013000321201AB22D2B4C2B5759008C2B4793282
:100140001201AB22D2B4C2B5759001C2B47AFA12D0
:1001500001AE22D2B4C2B5759006C2B47932120192
:10016000AB22D2B4C2B575900FC2B479321201ABD2
:1001700022D2B4C2B57590C0C2B479321201AB229A
:10018000D2B4C2B5759080C2B479321201ABD2B488
:10019000D2B5F590C2B479321201AB0DBD10023167
:1001A00071BD21067D003144318022D9FE2200003C
:1001B000000000000000DAF622E599F550F599B448
:0F01C0000306314431807D01318EC299C29832DD
:00000001FF
